:020000041000EA
:1000000000B5324B212058609868022188439860DF
:10001000D860186158612E4B002199600421596104
:100020000121F02299502B49196001219960352056
:1000300000F044F80222904214D00621196600F024
:1000400034F8196E01211966002018661A6600F04E
:100050002CF8196E196E196E052000F02FF8012189
:100060000842F9D1002199601B49196000215960AB
:100070001A491B48016001219960EB211966A021F2
:10008000196600F012F800219960164914480160C1
:100090000121996001BC002800D000471248134993
:1000A000086003C880F30888084703B5996A0420EC
:1000B0000142FBD001200142F8D103BD02B5186610
:1000C0001866FFF7F2FF186E186E02BD00000240BE
:1000D000000000180000070000035F00212200005C
:1000E000F4000018222000A00001001008ED00E03C
:1000F000000000000000000000000000070B8FD58A
:1001000000200420F7010010C3010010C5010010F9
:10011000C1010010C1010010C1010010C101001097
:10012000C1010010C1010010C1010010C701001081
:10013000C1010010C1010010C9010010CB01001065
:10014000CD010010CD010010CD010010CD01001037
:10015000CD010010CD010010CD010010CD01001027
:10016000CD010010CD010010CD010010CD01001017
:10017000CD010010CD010010CD010010CD01001007
:10018000CD010010CD010010CD010010CD010010F7
:10019000CD010010CD010010CD010010CD010010E7
:1001A000CD010010CD010010CD010010CD010010D7
:1001B000CD010010CD010010CD010010CD010010C7
:1001C00000BE00BE00BE00BE00BE00BE00F04BF888
:1001D000103800BEF2EB8871C85C0010E85C0010BB
:1001E0003402001090A31AE700202149086006C8D5
:1001F00081F3088810471F48006800282FD10DA4FC
:100200000ECC002902D000F012F8F9E71A491B4A77
:10021000002000E001C19142FCD1194988471949E9
:1002200088471949884700BEFDE701C901C29A42C3
:10023000FBD37047E85C0010C00000203C020020A7
:10024000645E00100000042000000420645E0010C2
:1002500000100420001004200000000070470B482C
:1002600005F03CF80047EFF30580C0B2704700008E
:1002700008ED00E0000000D04002002008860020C9
:10028000B9490010413E0010A54A00105756000021
:1002900006005250ABB360536C5C00100600525025
:1002A000861C03027C5C0010060052505422A29D62
:1002B000885C001005005250DE65F468645E001032
:1002C000F8B5C04610B5064C2378002B07D1054B76
:1002D000002B02D0044800E000BF0123237010BDB2
:1002E0004003002000000000D05B0010044B10B55C
:1002F000002B03D00349044800E000BF10BDC046F6
:100300000000000044030020D05B001010B5002066
:10031000D02403F0F1FD01232406A362012003F0A1
:10032000EBFD02230220A36203F0E6FD0423032079
:10033000A36203F0E1FD08230420A36203F0DCFDC7
:1003400010230520A36203F0D7FD20230620A3621B
:1003500003F0D2FD40230720A36203F0CDFD8023EC
:100360000820A36203F0C8FD80235B00A36209207C
:1003700003F0C2FD80239B00A3620A2003F0BCFDB2
:100380008023DB00A3620B2003F0B6FD80231B015A
:10039000A3620C2003F0B0FD80235B01A3620D205B
:1003A00003F0AAFD80239B01A3620E2003F0A4FDAD
:1003B0008023DB01A3620F2003F09EFD80231B023C
:1003C0006362102003F098FD80235B0263621120BA
:1003D00003F092FD80239B026362122003F08CFDE8
:1003E0008023DB026362132003F086FD80231B035E
:1003F0006362142003F080FD80235B036362152099
:1004000003F07AFD80239B036362162003F074FDE2
:100410008023DB03636210BDF0B5002157464E46D2
:100420004546DE46FD4BFE4AE0B599528021FD4827
:10043000FD4A9862FD480902D862FD489950186348
:10044000FC48FD4A5863FD481A609863FC48FD4A21
:10045000D863FD485A601864FC48FD4A5864FD485A
:100460009A609864FC48FD4AD864FD48DA601865D3
:10047000FC48FD4A5865FD481A619865FC48FD4AEC
:10048000D865FD485A611866FC4AFD48DA6158662D
:10049000FC4AFD48FD491A629866FD4AFD4899618B
:1004A0005A62D866FC48FD4C1867FD48E425586739
:1004B000FC48FD4F9867FD48FD4ED86780201C50D2
:1004C000FC4C04301C50FC4C04301C50FB4C0430E1
:1004D0001C50FB4C04301C50043019509821F94832
:1004E000F94C5850F94804315850F94804315850E3
:1004F000F84804315850F84804315850F74804314E
:100500005850F74804315850F64804315850F648CE
:1005100004315850F54804315850F54804315850CA
:10052000F44993468C46C42160465850F248043141
:100530005850F24804315850F14804315850D420F2
:100540001C5004301F50EF4C04301E5004301C501F
:10055000ED48EE4A585104355A51ED4A04355A5186
:10056000F022EC4D91469D50F425EB4A5A51EB4A4E
:1005700004355A53062202355A55F5329046523AFE
:10058000924642465146995461460132995004328E
:100590009F5082277F00DE51842676009C5186245E
:1005A0006400185188205A46DD4C40001C5004302D
:1005B0001A508C22DB4852009850DB480432985085
:1005C000DA4804329850DA48043298509420D94AD4
:1005D000D94C40001A5004301C50D84C04301C50E8
:1005E000D74C04301A5004301C50D64C04301C50E8
:1005F000D54C04301A5004301C50D44C04301C50DC
:10060000D34C04301A5004301C50D24C04301C50CF
:10061000D14C04301A5004301C50D04C04301C50C3
:10062000CF4C04301A5004301C50CE4C04301C50B7
:10063000CD4C04301A5004301C50CC4C04301C50AB
:10064000CB4C04301A5004301C50CA4C04301C509F
:10065000C94C04301A5004301C50C84C04301C5093
:10066000C74C04301A50D02104301C50C54C043003
:100670001C50C54C04301A5004301C50C34C04307C
:100680001C50C34C04301A5004301C50C14C043070
:100690001C50C14C04301A5004301C50BF4C043064
:1006A0001C50BF4C04301A5004301C50BD4C043058
:1006B0001C50BD4C04301A5004301C50BB4C04304C
:1006C0001C50BB4C04301A5004301C50B94C043040
:1006D0001C50B94C04301A5004301C50B74C043034
:1006E0001C5202301954F421EB38FF31FF385854B2
:1006F000B34801315A5004315850B248043158506F
:10070000B14804315A5004315850B048043158505F
:10071000AF4804315A5004315850AE480431585053
:10072000AD4804315A5004315850AC480431585047
:10073000AB4804315A5004315850AA48043158503B
:10074000A94804315A5004315850A848043158502F
:10075000A74804315A5004315850A6480431585023
:10076000A54804315A5004315850A4480431585017
:10077000A34804315A5004315850A248043158500B
:10078000A14804315A5004315850A04804315850FF
:1007900004315A509C229E49920099509D4904323E
:1007A00099509D49043299509C49043299509C4972
:1007B0009C480432995004329850A2209A4A9B4C8B
:1007C00080001A5004301C50994C04301C50994C35
:1007D000994E04301C5004301E50984E04301E5068
:1007E000A8269748974FB600985104369F51964FC8
:1007F00004369F51954F0436995104369F51944FBA
:1008000004369A5104369F51924F04369F51924FAD
:1008100004369C5104369F5120E1C046F00300206D
:10082000FA7F00007F20F388FC7F000020A983A9C5
:10083000018504A9018505A578A97F8D058DF07F27
:10084000A5048DF1FE7FA9FF7F58A200204A804CAD
:100850008DF27FA9B78ABD0893C9FFF0FF8DF37FA2
:1008600007206480E84C4A80A9008DF06020A486AF
:10087000C90DD0047FA9008D484C10818DEE7FA951
:1008800048C908D0FF8DE37F35A9208DF17FA97F6E
:10089000A9008DE1007FC604A504C900C6054C87E8
:1008A000D011A505C901F00905A5058DA93085045C
:1008B000F07FA50480E604A9208D007FA5058DF0BA
:1008C0007FA5048D8D007F4C84A91C851081C90BE8
:1008D000906EC90EF06AC911F066C980F062C991C4
:1008E000F05EC993F05AC9FFF056C90DD02DA9206A
:1008F0008D007FA9018504E605A505C91DD00A2044
:100900007582208C8DF17FA97F8D007F4C10818DA9
:10091000007F8506202081E604A931C504D0FFFFB1
:10092000686018607F60A9FF8DE17F60A505A6045F
:10093000C901D008A5069D00514C7482C902D00897
:10094000524C7482C903D008534C7482C904D00835
:10095000544C7482C905D008554C7482C906D0081D
:10096000564C7482C907D008574C7482C908D00805
:10097000584C7482C909D008594C7482C90AD008ED
:100980005A4C7482C90BD0085B4C7482C90CD008D5
:100990005C4C7482C90DD0085D4C7482C90ED008BD
:1009A0005E4C7482C90FD0085F4C7482C910D008A5
:1009B000604C7482C911D008614C7482C912000065
:1009C000624C7482C913D008634C7482C914D00875
:1009D000644C7482C915D008654C7482C916D0085D
:1009E000664C7482C917D008674C7482C918D00845
:1009F000684C7482C919D008694C7482C91AD0082D
:100A00006A4C7482C91BD0086B4C7482C91CD00814
:100A10006C4C748260A230BD00529D0051CAD0F768
:100A2000A230BD00539D0052CAD0F7A230BD005481
:100A30009D0053CAD0F7A230BD00559D0054CAD0C6
:100A4000F7A230BD00569D0055CAD0F7579D0056FD
:100A500030BD00589D0057CABD00599DFE4F043659
:100A60009F51FE4F0436985104369F51FC4F043677
:100A70009F51FC4F0436995104369F51FA4F04366A
:100A80009A5104369F519D2704369F53F74E423F9B
:100A90009F55F74E6F379F55F64F01369C510436E0
:100AA0009F51F54F04369F51F44F04369851043648
:100AB0009F51F34F04369F51F24F0436995104363B
:100AC0009F51F14F04369A5104369F51EF4F04362F
:100AD0009F51EF4F04369C5104369F51ED4F043621
:100AE0009F51ED4F0436985104369F51EB4F043619
:100AF0009F51EB4F0436995104369F51E94F04360C
:100B00009A5104369F51E84F04369F51E74F0436FF
:100B10009C5104369F51E64F04369F51E54F0436F1
:100B2000985104369F51E44F04369F51E34F0436E9
:100B3000995104369F51E24F04369A5104369F5121
:100B4000E04F04369F5104369C51DD24DE4EA40054
:100B50001E51DE4E04341E5104341851E020DC4C8A
:100B600080001C50DB4C04301C5004301950E32131
:100B7000D9488900585004315A50E522D74992008B
:100B80009950D74904329950D64904329950D649E0
:100B900004329950D54904329950D54904329950BC
:100BA000D44904329950EC21D34AD44889005A5090
:100BB00004315850D24804315A5004315850D14869
:100BC00004315A5004315850CF4804315A5004313E
:100BD0005850CE4804315A5004315850CC48043152
:100BE0005A5004315850CB4804315852A220CA49B7
:100BF000CA4F5D54CA49CB4E5854CB480131585066
:100C0000CA4804315A5004315850C94804315A5026
:100C100004315850C74804315A50043158500431F7
:100C20005A50C548C549C64D585004315A50C54858
:100C3000C549C64C585004315A50C548C54958504A
:100C400004315A50C448C549585004315A50C44818
:100C5000C449585004315A50C348C449585004310B
:100C60005A50C348C349585004315A50C248C34926
:100C7000585004315A50C248C249585004315A5051
:100C8000C148C249585004315A50C148C14958500E
:100C900004315A50C048C149585004315A50C048D4
:100CA000C049585004315A50BF48C04958500431C7
:100CB0005A50BF48BF49585004315A50BE48BF49E6
:100CC000585004315A50BE4ABE49BF489950BF4996
:100CD00004329950BE4ABF499950BF4A9046922269
:100CE0004146D2009950BD4A94466146BC4A99504B
:100CF000BC4904329950BC4ABC499F5004329950B7
:100D0000BB4ABC499E5004329950BB4ABB499D50D6
:100D100004329950BA4ABB499C5004329850BA4A9E
:100D20009950BA4904329950B94ABA499950BA49C6
:100D300004329950B94A93465946B94A9950B9492B
:100D400004329950B849B94A5A50B94A04315A52F2
:100D50008D21B84A99544946B74A99544146B74AF1
:100D60009950614604329950B54A9146B54A924627
:100D70004A465146995004329F50B34A9146B34A6D
:100D800092464A465146995004329E50B04A914686
:100D9000B04A92464A465146995004329D50AE4A56
:100DA0009146AE4A92464A465146995004329C506A
:100DB000AB4A985004329146AA4A92464A46514656
:100DC0009950A94A9149995004329146A74A9246AE
:100DD0004A4651469950A64A8F499950594604327D
:100DE0009950A44A9146A44A92464A46514699507F
:100DF0008E4904329950A14A9146A14A92464A46E8
:100E00005146995041460432995061469D4A995045
:100E1000043291469C4A92464A46514699509B4A12
:100E20009F50043291469A4A92464A4651469950FA
:100E3000984A9E5004329146974A92464A465146F5
:100E40009950964A9D5004329146954A92464A4698
:100E50005146995026E1C0460058CAD0005A9D001C
:100E600059CAD0F75B9D005A30BD005CEA02000011
:100E7000EB020000BD005D9D005CCAD0005E9D00DD
:100E80005DCAD0F75F9D005E30BD00609D005FCA07
:100E9000BD00619D0060CAD000629D0061CAD0F7AC
:100EA000639D006230BD00649D0063CABD00659D06
:100EB0000064CAD000669D0065CAD0F7679D0066D1
:100EC00030BD00689D0067CABD00699D0068CAD03A
:100ED000006A9D0069CAD0F76B9D006A30BD006C46
:100EE0009D006BCAD0F7A920A2309D006CCAD0FA31
:100EF00060A920A2309D0051CAD0FAA2309D0052B4
:100F0000309D0053309D0054309D0055309D00565B
:100F1000309D0057CAD0FFFFE2030000CAD0F4A9F9
:100F2000E3030000A2308EF1309D0058309D00593F
:100F3000309D005A309D005B309D005C0404000031
:100F40008D007FCA309D005D0C0400008DF07FA2F3
:100F5000309D005E14040000309D005F1C04000002
:100F6000309D006024040000309D00612C040000CE
:100F7000309D006234040000309D00633C0400009A
:100F8000309D006444040000309D00654C04000066
:100F9000309D006654040000309D00675C04000032
:100FA000309D006864040000309D00696C040000FE
:100FB000309D006A74040000309D006B7C040000CA
:100FC00084040000309D006C308EF17FCAD0FA603E
:100FD0008C040000A9018DF07FA2308EF17FBD004E
:100FE00094040000518D007F9C040000028DF07F6E
:100FF000A40400007FBD0052AC040000D0F4A9039B
:10100000B4040000BD00538DBC040000007FCAD0B2
:10101000C4040000F4A9048DF07FA2308EF17FBDDE
:10102000CC04000000548D00D40400007FCAD0F42A
:10103000A9050000DA040000DB040000DC04000065
:10104000E4040000558D007FEC040000068DF07F65
:10105000F40400007FBD0056FC040000D0F4A90792
:1010600004050000BD00578D0C050000F4A9088D93
:10107000140500001C05000000588D002405000028
:10108000A9098DF02C050000598D007F3405000062
:101090000A8DF07F3C0500007FBD005A440500002A
:1010A000D0F4A90BFD4A9C5004329850FC4A91465A
:1010B000FC4A92464A4651469950FB49043299509F
:1010C000FA4A9146FA4A92464A4651469950F94997
:1010D000043299505946F84A995004329146F74AD9
:1010E00092464A4651469950F54AF649995004327B
:1010F0009146F54A92464A46514699504146F34A2E
:101100009950614604329950F14A9146F14A92460B
:101110004A465146995004329F50EF4A9146EF4A51
:1011200092464A465146995004329E50EC4A9146A6
:10113000EC4A92464A465146995004329D50EA4A3A
:101140009146EA4A92464A465146995004329C508A
:10115000E74A985004329146E64A92464A4651463A
:101160009950E54AD049995004329146E34A924653
:101170004A4651469950E24ACE499950594604325E
:101180009950E04A9146E04A92464A465146995063
:10119000CC4904329950DD4A9146DD4A92464A468E
:1011A000514699504146043299506146D94A995066
:1011B00004329146D84A92464A4651469950D74AF7
:1011C0009F5004329146D64A92464A465146995219
:1011D000F02292465146D34A9954D34A91467F22EF
:1011E00092464A4651469954D04A9E5004329146FE
:1011F000CF4A92464A4651469950CE4A9D500432B3
:101200009146CD4A92464A4651469950CB4A9C5007
:1012100004329850CA4A9146CA4A92464A465146B2
:101220009950A14904329950C74A9146C74A9246FB
:101230004A46514699509F49043299505946C44AEA
:10124000995004329146C34A92464A4651469950B3
:10125000C14A9C49995004329146C04A92464A4636
:10126000514699504146BE4A9950614604329950C0
:10127000BC4A9146BC4A92464A465146995004326D
:101280009F50BA4A9146BA4A92464A4651469950A8
:1012900004329E50B74A9146B74A92464A46514652
:1012A000995004329D50B54A9146B54A92464A46F5
:1012B0005146995004329C50B24A9850043291469B
:1012C000B14A92464A4651469950B04A7649995099
:1012D00004329146AE4A92464A4651469950AD4A2A
:1012E00074499950594604329950AB4A9146AB4AD9
:1012F00092464A4651469950724904329950A84A3A
:101300009146A84A92464A4651469950414604326F
:1013100099506146A44A995004329446A34A904693
:10132000624641469950A24AA2499F50CD27A24AFF
:10133000FF00DA51A14F5A46DE51CE26A04FF600EB
:101340009F51A04E9D51CF259F4EED005E519F4D68
:101350009F4E5C51D024E40018519E489E4C9F4DF6
:101360001C50514C04301C509D489E4C58505148C4
:10137000043158509C499D485A5004315850514AA4
:101380009B49E3205A50D4229A49D20099509A4A54
:101390009A49C00099509A4904329950994A9A49F9
:1013A00099509A4904329950994A9A4999509A49C0
:1013B00004329950994A9A4999509A49043299505D
:1013C000994A9A4999509A49043299528621994AE0
:1013D0009954994A1F319954984A99499950994971
:1013E00004329950984A9949995099490432995030
:1013F000984A99499950994904329950984A99497B
:101400009950994904329950984A99499950994963
:1014100004329950984A99499950994904329950FF
:10142000984A99499950994904329950984A99494A
:101430009950994904329950984A99499950994933
:10144000043299509849994A9950994A1A509948A2
:101450001C50994C04301C509848994C1C50994C85
:1014600004301C509848994C1A5004301C5098482D
:10147000984C1C50984C04301C509848984C1C5068
:10148000984C04301C509848984C1C50984C043090
:101490001C509848984C1C5030E1C0464C05000048
:1014A00054050000BD005B8D007FCAD05C050000C4
:1014B000F4A90C8DF07FA23064050000005C8D0063
:1014C0006C0500007FCAD0F4A90D8DF074050000F2
:1014D0007C0500005D8D007F840500000E8DF07F8F
:1014E0008C0500007FBD005E94050000D0F4A90FBC
:1014F0009C050000BD005F8DA4050000F4A9108DBF
:10150000AC050000B405000000608D00BC050000C3
:10151000A9118DF0C4050000618D007FCC0500008D
:10152000128DFFFFD2050000D3050000D405000096
:101530007FBD0062DC050000D0F4A913E4050000C3
:10154000EC050000BD00638DF4050000F4A9148DC6
:10155000FC05000000648D0004060000A9158DF054
:101560000C06000014060000658D007F1C060000BC
:10157000168DF07F240600007FBD00662C0600005B
:10158000D0F4A91734060000BD00678D3C060000AA
:10159000F4A9188D440600004C06000000688D0078
:1015A00054060000A9198DF05C060000698D007FCB
:1015B000640600008C0600001A8DF07F6C060000A7
:1015C0007FBD006A74060000D0F4A91B7C060000F1
:1015D000E07FC82084060000BD006B8D12F012C9A8
:1015E000F4A91C8D4902850294060000006C8D0050
:1015F0009C0600006020F388A4060000208E87D09F
:10160000FB209288AC06000020A787F0F8AAC978D2
:10161000B4060000F015C9693011C97EBC0600008F
:10162000100DA5028902F00DC40600008A297FAAC8
:101630004CD5FFFFCA060000CB060000CC06000018
:10164000028910F0048A0980D4060000AAA5028944
:1016500008F00FBDDC0600003089C98FF0BF291FDC
:10166000E4060000F0C3AA4C0387BD30EC0600007E
:1016700089F0BAAAA5028904F4060000F00D8AC90F
:10168000619008C9FC0600007BB00438E920AADAA2
:1016900004070000208E87F0FB6860A90C0700009B
:1016A0000260A9102CA908050285024C140700004D
:1016B0003787A5021C070000200A894C2407000078
:1016C0003787A5032007884C2C07000049048502B2
:1016D00034070000200A89A9006020923C0700001E
:1016E00088C9F0F021C914F044070000CCA203DD42
:1016F0005A87F00A4C070000CA10F8C9EB4C0430B6
:101700001C50EB48EB4C1C50EB4C04301C50EB488D
:10171000EB4C1C50EB4C04301C50EB48EB4C1C5079
:10172000EB4C04301C50EB48EB4C185104341D5169
:10173000EA4CEB4D1D51EB4D04341D51EA4CEB4D81
:101740001D51EB4D04341D51EA4CEB4D1D51043439
:101750001951EA49EA4C5A50F222EA49D20099500A
:10176000E94AEA49EA4D9950EA4904329950EA4A6D
:10177000EA499950EA4904329950EA4AEA499950AB
:10178000EA4904329950EA4AEA499950EA4904324E
:101790009950EA4AEA499950EA4904329950EA4A8A
:1017A000EA499950EA4904329952F021E94A995498
:1017B000E94A0A319954E94AE9499950E949043218
:1017C0009950E94AE9499950E94904329950E94A5E
:1017D000E9499950E94904329950E94AE94999504F
:1017E000E94904329950E94AE9499950E9490432F2
:1017F0009950E94AE9499950E94904329950E94A2E
:10180000E9499950E94904329950E94AE94999501E
:10181000E94904329950E94AE9499950E94AEA49C3
:101820009950EA4AEA499950EA4904329950EA4AF9
:10183000EA499950EA4AEB499950EB4AEB499950E9
:10184000EB4904329950EB4AEB499950EB4AEC4989
:101850009C50EC4A9950EC4904329950EB4A9D5007
:10186000EB4AEC4D9D50EC4AEC4D9D50EC4D043252
:101870009D50EC4AEC4D9D50EC4AED4D9D50ED4A8B
:10188000ED4D5A5104355E51EC4DED4E5E51ED4D2E
:10189000ED4E5E51ED4DEE4E5E5104355A51ED4A1E
:1018A000ED4D10269D50ED4AED4D9D50ED4AEE4D0B
:1018B0009D50EE4D04329D50ED4AEE4D9950EE4A4A
:1018C0009D50EE4AEE4D9D50EE4D04329D50EE4A35
:1018D000EE4D9D50EE4AEF4D9D50EF4AEF4D9D501D
:1018E000EF4D04329D50EF4AEF4D9D50EF4AF04DC1
:1018F0009D50F04AF04D9D50F04D04329D50F04AFD
:10190000F04D9D50F04AF14D9D50F14AF14D9D50E2
:10191000F14D04329D50F14AF14D9D50F14AF24D86
:101920009D520022F14D5A55F14D5E55F14DF24E4A
:101930005E51F24E04355E51F14DF24E5E51F24D64
:10194000F24E5E51F24DF34E5E51F34E04355E5150
:10195000F24DF34E5E51F34DF34E5E51F34EF44DA6
:101960005E5104355C51F34CF34D1D51F34CF44D75
:101970001951F449F44C5C50F44C04315C50F44976
:10198000F44C5C50F449F54C5C50F549F54C58501A
:10199000F54804315850F549F5485850F549F6488E
:1019A0005850F649F6485850F64804315850F64910
:1019B000F6485850F649F7485850F749F7485850F4
:1019C000F74804315850F749F7485850F749F84854
:1019D0005850F849F8485850F84804315850F849D8
:1019E000F8485850F849F9485850F949F9485850BA
:1019F000F94804315850F9495C50F949F94C5C50A8
:101A0000F949FA4C5C50FA4C04315C50F949FA4CF3
:101A10005C50FA49FA4C5C50FA49FB4C5C50FB4C68
:101A200004315C50FA49FB4C5C50FB49FB4C5C5068
:101A3000FB49FC4C5C50FC4C04315C50FB49FC4CB9
:101A40005C50FC49FC4C5C50FC49FD4C5C509C24B7
:101A50000431A4035C50FB49FB4C5C50FB49FC4C3B
:101A60005C50B824FB49E4015C5004315A50802199
:101A7000F94C09031951F94C1D513725F84C1D51EA
:101A8000F84D04341D51F84CF84D1D51F84CF94DEA
:101A90001D51F94CF94D1D51F94D04341D53C72505
:101AA000F84C1D55F84C023D1D55EFE13F30020941
:101AB000540700008060BD5E87607E4A5C070000BE
:101AC000127C206A000F20926407000088C912D09F
:101AD0000E4C3787209288C96C07000074070000FD
:101AE00059F00EC914F007C97C07000011D0B8A93D
:101AF0001360A9F7840700002CA9EF258C070000CC
:101B0000ADE07F294901850294070000200A89A5DC
:101B1000EF8DE27F028901609C070000A2072092FE
:101B200088CAD0FAA4070000A91060A20EDDBA8707
:101B3000AC070000F004CA10F8608A0AB40700007D
:101B4000AAA5007CC9878358BC07000012591477E6
:101B5000E1E0FFFFC2070000C3070000C407000068
:101B6000AAEEFEFF000B872ECC070000870E870E23
:101B70008711871AD4070000879C873A876C8737BC
:101B8000DC0700008737873787268705E4070000D2
:101B9000880588A205ADE27FEC07000029CF8DE221
:101BA0007FA9102CF4070000E07FF009CAD0F620CE
:101BB000FC070000E088A9006020E088040800001D
:101BC00060A9F4850808000000DA5A850C080000B6
:101BD00003ADE07F29EF0920140800008DE07FAD00
:101BE00018080000E27F09301C0800008DE27FA980
:101BF000103AD0FD24080000A000A2082808000028
:101C0000CF8DE07F2C080000ADE27F293408000072
:101C100038080000201E89663C08000000B00BADAB
:101C2000E07F29DF440800008DE07F4C4808000079
:101C30005388ADE07F09208D4C0800005408000057
:101C40001E89CAD058080000E29829015C080000EB
:101C5000D00BADE064080000E07F4C716808000024
:101C600088ADE07F6C08000029DF8DE07F201E89B1
:101C700074080000CF8DE27F780800007C08000027
:101C80007AFA201E89D070AD84080000E07F291008
:101C900088080000F0F94CE08C08000088A9FE20BC
:101CA0000788DA5A94080000A90085009808000007
:101CB0008501A0009C080000A208ADE27F29CF8D1D
:101CC000A4080000E27FA910A80800002CE07FD043
:101CD000AC080000F9ADE07F2920D0F2B408000084
:101CE000201E89C9B808000001660000BA0800007B
:101CF000BB080000BC08000001C8CAD0F3201E8940
:101D0000C4080000F002E601C8080000987AFA450D
:101D1000CC080000012901F0BC201E89D408000075
:101D2000F0B7A500D8080000F0B820E088A5006052
:101D3000DC080000E4080000EF8DE07FE808000008
:101D400000312F34EC080000CF09108DE27F60A92C
:101D5000F4080000028502A9F8080000FF200788A7
:101D6000FC08000000713100FAD0F42004090000E2
:101D70009288C9AA08090000D0EDA9ED0C0900005D
:101D8000200788209288C9FA14090000D0F4A5021F
:101D900018090000290720071C0900008860A91005
:101DA0002CE07FF024090000F92CE07F28090000D6
:101DB000D0FBADE02C0900007F29206000898785D9
:101DC000340900008381828C38090000008A8886EB
:101DD0003C0900008409608F03A000E04409000072
:101DE0004809000000007A734C090000617732A1B5
:101DF0000263786454090000653433A25809000076
:101E0000002076665C090000747235A3006E62687B
:101E100064090000677936006809000000006D6AF7
:101E20006C09000075373800002C6B6974090000DC
:101E30006F30390078090000002E2F6C7C090000FB
:101E40003B702D00840900005B3D00008809000004
:101E500000000D5D8C090000940900009809000045
:101E60009C090000302E3235A409000036381B00D2
:101E7000A80900008B2B332DAC0900002A398D00F6
:101E800000C9FFFFB2090000B3090000DF4CE04DBC
:101E90001D51E04CE04D1D51E04CE14D1D5104340D
:101EA0001851E048E04CE14D1C50E148E14C1C5019
:101EB000E148E24C1C50E24C04301C50E148E24C3A
:101EC0001C50E248E24C1C50E248E34C1C50E34CEE
:101ED00004301C50E248E34C1C50E348E34C1C50D7
:101EE000E348E44C1C50E44C04301C50E348E44C00
:101EF0001C50E448E44C1C50E448E54C1C50882439
:101F00000430A4031C50E348E34C1C50E348E44C69
:101F10001C50F824E348E4011C5004301A50E24AF3
:101F2000E2489950E24AE349BC2499509721E24A99
:101F30009950E24904329950E14AE2499950E24A03
:101F4000E2499950E24AE3499950E34904329950F1
:101F5000E24AE3499950E34AE3499950E34AE449A4
:101F60009950E44904329950E34AE4499950E44ACB
:101F7000E4499950E44AE5499950E54904329950B9
:101F8000E44AE5499950E54AE5499950E54AE64968
:101F90009950E64904329950E54AE6499950E64A93
:101FA000E6499950E64AE7499950E7490432995081
:101FB000E64AE7499950E74AE7499950E74AE8492C
:101FC0009950E84904329950E74AE8499950E84A5B
:101FD000E8499950E84AE9499950E9490432995049
:101FE000E84AE9499950E94AE9499950E94AEA49F0
:101FF0009950EA4904329950E94AEA499950EA4A23
:10200000EA499952FB21EA4A9954EA4A71399954AA
:10201000E94AEA499950EA4904329950E94AEA49B9
:102020009950EA4AEA499950EA4AEB499950EB49F2
:1020300004329950EA4AEB499950EB4AEB499950DE
:10204000EB4AEC499950EC4904329950EB4AEC497F
:102050009950EC4AEC499950EC4AED499950ED49B8
:1020600004329950EC4AED499950ED4AED499950A6
:10207000ED4AEE499950EE4904329950ED4AEE4945
:102080009950EE4AEE499950EE4AEF499950EF497E
:1020900004329950EE4AEF499950EF4AEF4999506E
:1020A000EF4AF0499950F04904329950EF4AF0490B
:1020B0009950F04AF0499950F04AF1499950F14944
:1020C00004329950F04AF1499950F14AF149995036
:1020D000F14AF2499950F24904329950F14AF249D1
:1020E0009950F24AF2499950F24AF3499950F3490A
:1020F00004329950F24AF3499950F34AF3499950FE
:10210000F34AF4499950F44904329950F34AF44996
:102110009950F44AF4499950F44BF54AF5499950CD
:10212000F54904329950F54AF5499950F54AF6496E
:102130009950F64AF6499950F64904329950F64AB0
:10214000F6499950F64AF7499950F74AF749995094
:10215000F74904329950F74AF7499950F74AF84934
:102160009950F84AF8499950F84904329950F84A78
:10217000F8499950F84AF9499950F94AF94999505A
:10218000F94904329952A521F84A9954F84A18316C
:102190009954F84AF8499950F84AF9499950F94A36
:1021A000F9499950F94904329950F94AF949995035
:1021B000F94AFA499950FA4AFA499950FA490432C7
:1021C0009950FA4AFA499950FA4AFB499950FB4A00
:1021D000FB499950FB4904329950FB4AFB499950FD
:1021E000FB4AFC499950FC4AFC499950FC4904328D
:1021F0009950FC4AFC499950FC4AFD499950FD4AC6
:10220000FD499950FD4904329950F9E1B4090000A3
:10221000C3C1C2CCB809000000CAC8C6BC090000CE
:10222000C4097ECFC409000000512100378D10F889
:10223000C809000000005A53CC090000415740E192
:1022400002435844D4090000452423E2D809000081
:1022500000205646DC090000545225E3004E424857
:10226000E409000047595E00E809000000004D4AFB
:10227000EC09000055262A00003C4B49F4090000F7
:102280004F292800F8090000003E3F4CFC090000DF
:102290003A505F00040A00007B2B0000080A00008F
:1022A00000000D7D0C0A0000140A0000512AAA202B
:1022B000180A000000912F941C0A0000907F92954C
:1022C000240A000096981B00280A0000CB2B932DAF
:1022D0002C0A00002A99CD4C42804CB7340A0000E9
:1022E0008A4CFB8A380A00004C59804C3C0A00009A
:1022F00064804C1281081B00440A0000002086C341
:10230000480A0000900586C34C0A000091C260B1E3
:10231000C2A00060540A0000A08BA28B580A0000E3
:10232000168C438C5C0A0000718C3B8CDD8D809197
:10233000640A00007D91B88D680A00003A8FDD8D37
:102340006C0A0000DD8DDD8DFB90FF90740A0000AB
:10235000C890D990780A000027919F8D7C0A0000D0
:102360008F8D7F9090908D90840A0000A090259092
:10237000880A00000B8D448D8C0A0000DD8D538E81
:10238000E58DF58C940A0000FD8CC18E980A000042
:10239000DF8CDD8D9C0A0000DD8DE68E8D918B91AA
:1023A000A40A0000458FE88AA80A0000758DFFFF87
:1023B000AA0A0000AB0A0000AC0A00005991EF9095
:1023C00020415420B40A000080AE91A9B80A000050
:1023D00000852085BC0A000022A90285218523A052
:1023E000C40A000001B122AAC80A000049FF9122D4
:1023F000CC0A0000D122088A9122E622D40A0000E9
:10240000D002E623D80A0000A523C98ADC0A00000E
:10241000D006A522C92FF003E40A000028F0DE88C8
:10242000E80A0000D8A5206DEC0A0000458A852442
:1024300098652185F40A000025989120F80A00008B
:10244000C89120A5FC0A00002285C68526A5238503
:10245000040B0000C7852720080B0000C58EADB512
:102460000C0B00008A852AADB68A852B140B000060
:10247000A98085C1180B0000A93085C01C0B000085
:10248000A20086BE86C2CA9A240B0000D820378DCF
:10249000280B000020308B4C2C0B0000248B836514
:1024A000C930B07B340B0000C908900C380B000019
:1024B0000AAABD513C0B00008A48BD508A4808401A
:1024C000440B000065C1AAB1480B0000C148B5002B
:1024D0004C0B000091C16895006020C5540B0000B2
:1024E0008EA92120580B00003B8AA52AF00300206A
:1024F0005C0B000038EDB58AAAA52BED640B00003B
:10250000B68A20DE680B00008DA5BEF06C0B0000C3
:1025100012A9B0852AA98A85740B00002B20DF8CB4
:10252000780B0000A628A5297C0B000020DE8DA9D1
:1025300007203B8A840B000020C58EA5880B000075
:102540002685C6A58C0B00002785C74C0A8BA27C6C
:10255000940B0000E4C190BA980B0000A6C1E6C13C
:102560009C0B0000E6C11860C6BDFFFFA20B000077
:10257000A30B0000A40B0000F0ACA5BCA80B00004E
:10258000852AA5BDAC0B0000852B60C940B043482F
:10259000B40B000020378D6DB80B0000B58A85BCE8
:1025A000BC0B0000684829076DB68A85C40B000083
:1025B000BD682908C80B0000D0DCA5BCCC0B00000E
:1025C000A62A852A86BCA5BDD40B0000A62B852B88
:1025D000D80B000086BDA5C6DC0B0000E90185C64E
:1025E000B002C6C7E40B0000C524A5C7E80B000075
:1025F000E52590AAEC0B0000A5BC91C6C8A5BD912D
:10260000DC4ADD499950DD4ADD499950DD4ADE4911
:102610009950DE4904329950DD4ADE499950DE4A2C
:10262000DE499950DE4ADF499950DF49043299501A
:10263000DE4ADF499950DF4ADF499950DF4AE049D5
:102640009950E04904329950DF4A9850DF4AE048F7
:102650009850E04AE0489850E04804329850E04AE8
:10266000E0489850E04AE1489850E14AE1489850E3
:10267000E14804329850E14AE1489850E14AE24882
:102680009850E24AE2489850E24804329850E24AB0
:10269000E2489850E24AE3489850E34AE3489850A9
:1026A000E34804329850E34AE3489850E34AE44848
:1026B0009850E44AE4489850E44804329850E44A78
:1026C000E4489850E44AE5489850E54AE54898506F
:1026D000E54804329850E54AE5489850E54AE6480E
:1026E0009850E64AE6489850E64804329850E64A40
:1026F000E6489850E64AE74898528522E6481A5438
:10270000E6481C54E648E74C1C50E74C04301C508B
:10271000E648E74C1C50E748E74C1C50E748E84CBB
:102720001C50E84C04301C50E748E84C1C50E8486A
:10273000E84C1C50E848E94C1C50E94C04301C5053
:10274000E848E94C1C50E948E94C1C50E948EA4C7F
:102750001C50EA4C04301C50E948EA4C1C50EA4832
:10276000EA4C1C50EA48EB4C185104341D51EA4C19
:10277000EA4D1D51EA4CEB4D1D51EB4CEB4D1D51FB
:10278000EB4D04341D51EB4CEB4D1951EB49EC4C26
:102790005C50EC49EC4C5C50EC4C04315C50EC4926
:1027A000EC4C5C50EC49ED4C5C50ED49ED4C5C5010
:1027B000ED4C04315C50ED49ED4C5C50ED49EE4C74
:1027C0005C50EE49EE4C5C50EE4C04315C50EE49EE
:1027D000EE4C5C50EE49EF4C5C50EF49EF4C5C50D6
:1027E000EF4C04315C50EF49EF4C5C50EF49F04C3A
:1027F0005C50F049F04C5C50F04C04315C50F049B6
:10280000F04C5C50F049F14C5C50F149F14C5C509B
:10281000F14C04315C50F149F14C5C50F149F24CFF
:102820005C50F249F24C5C50F24C04315C50F2497D
:10283000F24C5C50F249F34C5C50F349F34C5C5061
:10284000F34C04315C50F349F34C5C50F349F44CC5
:102850001951F44C1D51F44D04341D51F34CF44DF9
:102860001D51F44CF44D1D51F44CF54D1D51F54DD9
:1028700004341D53F025F44C1D55F44C323D1D55C8
:10288000F34CF44D1D51F44CF44D1D51F44CF54DE9
:102890001D51F54D04341D51F44CF54D1D51F54CB1
:1028A000F54D1D51F54CF64D1D51F64D04341D519D
:1028B000F54CF64D1D51F64CF64D1D51F64CF74DAD
:1028C0001D51F74D04341D51F64CF74D1D51F74C79
:1028D000F74D1D51F74CF84D1D51F84D04341D5165
:1028E000F74CF84D1D51F84CF84D1D51F84CF94D71
:1028F0001D51F94D04341D51F84CF94D1D51F94C41
:10290000F94D1D51F94DFA4C1D5104341851F94837
:10291000F94C1C50F948FA4C1C50FA48FA4C1C501F
:10292000FA4C04301C50FA48FA4C1C50FA48FB4C44
:102930001C50FB48FB4C1C50FB4C04301C50FB480B
:10294000FB4C1C50FB48FC4C1C50FC48FC4C1C50E5
:10295000FC4C04301C50FC48FC4C1C50FC48FD4C0A
:102960001C50FD48FD4C1C50FD4C04301C50FD48D3
:10297000FAE1C046F40B0000C660484AF80B0000BC
:102980004A4A4A29FC0B00000EAA68C960291FB0F8
:10299000040C00000209E018080C0000F007652A8A
:1029A0000C0C000085BC98652B85BD4C140C0000F8
:1029B0003A8BA52C180C000085B8A52D1C0C000026
:1029C00085B920638C20528C240C0000280C000058
:1029D000378D8AF02C0C0000F10AF012A5B8852C76
:1029E000340C0000A5B9852D380C00004CA28B20BA
:1029F0003C0C0000638CC90DD0F66020440C000034
:102A0000638CC95B480C0000B0EEC9414C0C00005F
:102A100090EA0A20C58DA000540C0000B12CE62CD1
:102A2000580C0000D002E62D5C0C0000C90D1860A7
:102A300020528CB1640C00002CC920F0680C0000FE
:102A4000F7C93A186C0C00001002C9306020638C82
:102A5000740C000090C284BC780C000084BDA5BC3E
:102A60007C0C0000A6BD06BC26BD06BC840C000084
:102A700026BD1865880C0000BC85BC8A8C0C000043
:102A800065BD06BC2A85BD20940C0000528C290F20
:102A9000980C000065BCFFFF9A0C00009B0C000026
:102AA0009C0C00009865BD85BD20638CA40C0000C3
:102AB000B0D44CBEA80C00008D203A8FAC0C0000A6
:102AC000A5BC05BDF048A520B40C0000852CA521AF
:102AD000B80C0000852D20ABBC0C00008DF012A5B9
:102AE00028C5BCA5C40C000029E5BDB0C80C000079
:102AF0000820528CCC0C0000D0FB4CBA8CA5284589
:102B0000D40C0000BCD004A5D80C00002945BD6041
:102B100020E48C20DC0C0000E40C0000E6BF300355
:102B2000E80C00004C3B8AC6EC0C0000BF60C922D8
:102B3000F0FB20E4F40C00002D20AB8DF80C00001D
:102B4000D0F44C52FC0C00008BA92020E48CA5BFD3
:102B5000040D0000298730E5080D0000D0F360A2C5
:102B60000C0D00007B20948BE6C1E6C1140D000023
:102B7000E6C138B5180D000003F500951C0D0000E6
:102B800000B504F501500449240D0000800901300E
:102B9000280D00000AD004152C0D000000F002568C
:102BA00002560256340D000002900CA0380D0000B1
:102BB00000B12AE63C0D00002AD002E62B09006095
:102BC000440D0000A5BEF028480D000020528CD016
:102BD0004C0D0000FB20AB8DF01B208A540D000033
:102BE0008D203E8A580D0000B009A5C45C0D000080
:102BF000852AA5C5852B60AD640D0000B58A852AA0
:102C0000680D0000ADB68A856C0D00002B4C528B10
:102C100085BF4C87740D00008BA520852CA52185D0
:102C2000780D00007C0D0000F0EBA52A840D00005B
:102C300085C4A52B880D000085C5A9018C0D000059
:102C400085BE6020A98CFFFF920D0000930D00004F
:102C5000940D0000A5BC8528980D0000A5BD852910
:102C60009C0D00004C528B203B912038A40D00009D
:102C70009120B28CA80D0000D0EA6020AC0D0000BD
:102C8000528C852820528C85B40D000029052860BF
:102C9000B80D0000203A8F20BC0D0000BE8DA5BDF0
:102CA00020C58DA5C40D0000BCA6C1CAC80D00007A
:102CB000950086C1CC0D0000E4C0D00D4C528BA60F
:102CC000D40D0000C1E08010D80D0000F7B500E67B
:102CD000DC0D0000C16085BD86BC4CF6E40D000033
:102CE0008DA6C1B5E80D0000011008207F90A92D28
:102CF000EC0D0000F40D00003A8FA91FF80D000044
:102D000085B885BAFC0D0000A92A85B985BBA6BC8B
:102D1000040E0000A4BD38E6080E0000B88AE910D1
:102D20000C0E0000AA98E927A8B0F4C6140E000003
:102D3000B98A69E8180E0000AA9869031C0E000001
:102D4000A890F48A38E6BAE9240E000064B0F98845
:102D5000280E000010F6C6BB2C0E0000690A90FA7F
:102D6000093085BC340E0000D94C1C50D948DA4CCF
:102D70001C50DA48DA4C1C50DA4C04301C50DA484B
:102D8000DA4C1C50DA48DB4C1C50DB48DB4C1C5046
:102D9000DB4C04301C50DB48DB4C1C50DB48DC4C6B
:102DA0001C50DC481950E621DB4809015850DB492A
:102DB000DB485850DB49DC485850DC49DC48585067
:102DC000DC4804315850DC49DC485850DC49DD48C7
:102DD0005850DD49DD485850DD4804315850DD4930
:102DE000DD485850DD49DE4858523E20DD495854F0
:102DF000DD494C305854DD49DD485850DD48043138
:102E00005850DD49DD485850DD49DE485850DE490C
:102E1000DE485850DE4804315850DE49DE485850EC
:102E2000DE49DF485850DF49DF485850DF48043159
:102E30005850DF49DF485850DF49E0485850E049D2
:102E4000E0485850E04804315850E049E0485850B4
:102E5000E049E1485850E149E1485850E14804311F
:102E60005850E149E1485850E149E2485850E24998
:102E7000E2485850E24804315850E249E24858507C
:102E8000E249E3485850E349E3485850E3480431E5
:102E90005850E349E3485850E349E4485850E4495E
:102EA000E4485850E44804315850E449E448585044
:102EB000E449E5485850E549E5485850E5480431AB
:102EC0005850E549E5485850E549E6485850E64924
:102ED000E6485850E64804315850E649E64858500C
:102EE000E649E7485850E749E7485850E748043171
:102EF0005850E749E7485850E749E8485850E849EA
:102F0000E8485850E84804315850E849E8485850D3
:102F1000E849E9485850E949E9485850E948043136
:102F20005850E949E9485850E949EA485850EA49AF
:102F3000EA485850EA4804315850EA49EA4858509B
:102F4000EA49EB485850EB49EB485850EB480431FC
:102F50005850EB49EB485850EB49EC485850EC4975
:102F6000EC485850EC4804315852B620EB495854BC
:102F7000EB49EC485A54EC4AEC499950EC4AED497B
:102F80009950ED4AED499950ED4904329950ED4A76
:102F9000ED499950ED4AEE499950EE4AEE49995063
:102FA000EE4904329950EE4AEE499950EE4AEF4903
:102FB0009950EF4AEF499950EF4904329950EF4A3E
:102FC000EF499950EF4AF0499950F04AF049995029
:102FD000F04904329950F04AF0499950F04AF149C9
:102FE0009950F14AF1499950F14904329950F14A06
:102FF000F1499950F14AF2499950F24AF2499950EF
:10300000F24904329950F24AF2499950F24AF3498E
:103010009950F34AF3499950F34904329950F34ACD
:10302000F3499950F34AF4499950F44AF4499950B4
:10303000F44904329950F44AF4499950F44AF54954
:103040009950F54AF5499950F54AF6499950F64A8A
:10305000F6499950F64AF7499950F74AF749995075
:10306000F74904329950F74AF7499950F74AF84915
:103070009950F84AF8499950F84AF9499950F94A4B
:10308000F9499950F94AFA499950FA4AFA49995036
:10309000FA4904329950FA4AFA499950FA4AFB49D6
:1030A0009950FB4AFB499950FB4AFC499950FC4A0C
:1030B000FC499950FC4AFD499950FD4AFD499950F7
:1030C000FD4904329950FD4AFD499950FAE1C04644
:1030D000A92085BD380E0000A2FB86C33C0E00006F
:1030E000B5BD05BDC920F009440E0000A03084BD67
:1030F000480E000005BD20E44C0E00008CA6C3E87D
:10310000D0E860A5540E00002D48A52C580E0000F4
:1031100048A520855C0E00002DA524A6640E0000A5
:103120002520998E680E0000F00320996C0E000097
:103130008EA52C38E5B6A52D740E0000E5B7B0427B
:10314000780E000020AB8DF07C0E00003DA628A577
:103150002920DE8D840E0000A92020E4880E0000C6
:103160008C2000008A0E00008B0E00008C0E0000E8
:10317000B02C20528CD0F320940E0000C18E4C6DE8
:10318000980E00008E85B6E69C0E0000B6D001E8D1
:1031900086B7A4C1A40E0000C080F018A80E0000DD
:1031A00020A98CA5AC0E00002CA62D38E902B00198
:1031B000B40E0000CA852C4CB80E000086916885BC
:1031C000BC0E00002C68852D60A5BF30C40E000029
:1031D000FBA90D20C80E00003B8AAD43CC0E0000B9
:1031E0008A297F85BFF00720D40E0000A291C6BFB8
:1031F000D80E0000D0F9A90ADC0E00004C9F91AC5B
:10320000448A84BFE40E0000B00BA930E80E000031
:10321000852C85C0EC0E0000842D20BE8D45808558
:10322000F40E00008020388AF80E0000A000A6C02E
:10323000FC0E0000297FF0F1C97FF0ED040F0000C3
:10324000C913F0DA080F0000C90AF0D30C0F000010
:10325000CD428AF009CD418A140F0000D00AE03037
:10326000180F0000D016A62C1C0F000084BFA90D5B
:10327000E4C13008240F0000A90720E4280F000053
:103280008C4CF18E2C0F00009500E8E8CA86C0C96E
:10329000340F00000DD0BA20380F0000C18E20D3AB
:1032A0003C0F00008D85BC20D38D85BD440F0000F0
:1032B00060201491480F000020A98C084C0F0000DA
:1032C00020AB8E85B886B9A5540F0000BC85B6A585
:1032D000580F0000BD85B7A25C0F00000028D00B7E
:1032E00020AB8DCA640F0000CACA2052680F0000CC
:1032F0008CD0FA846C0F0000288429201491A90D29
:10330000740F0000D12CF011780F0000E8E8E8E815
:103310007C0F0000C8D12CD0FAA5FFFF820F00005F
:10332000830F0000B500B401840F000028A5B78505
:10333000880F000029A5B8858C0F0000BCA5B985B1
:10334000BD18A000940F00008AF06E10980F0000C6
:1033500029652E859C0F0000B8A52FE90085B9B11D
:10336000A40F00002E91B8A6A80F00002EE424D0D0
:10337000AC0F000006A52FC525F04AE8B40F0000E9
:10338000862ED002B80F0000E62FE6B8BC0F000072
:10339000D0E5E6B9D0E16524C40F000085B8852EDC
:1033A000C80F000098652585CC0F0000B9852FA5B2
:1033B0002EE5C6A5D40F00002FE5C790D80F00005A
:1033C00005C62A4CDC0F0000528BB124912EA62496
:1033D000E40F0000D002C625E80F0000C624A62E88
:1033E000EC0F0000D002C62FCA862EE4F40F0000B6
:1033F000BCD0E7A6F80F00002FE4BDD0FC0F000002
:10340000E1A5B88524A5B9850410000025A52805E7
:103410000810000029F017A50C1000002891BCC866
:1034200010100000A52991BC14100000C884B6201B
:1034300018100000528C08A41C100000B691BC2883
:10344000D0F24C0A241000008B20928B2810000030
:10345000B50329802C100000F002A9FF30100000F5
:1034600085BC85BD341000004875029538100000F9
:10347000026848753C10000003950368550185BB40
:1034800044100000100320814810000090A011B5E6
:103490004C100000001501D050100000034C528B5E
:1034A0005410000038A5BCF5581000000048A5BD18
:1034B0005C100000F5014845BD300A68641000004A
:1034C00085BD6885CF4AD0499950D04AD049995096
:1034D000D04AD1499950D14AD1499950D14AD2497B
:1034E0009952D921D14A9954D14A34399954D14A5F
:1034F000D1499950D14904329950D14AD149995072
:10350000D14AD2499950D24AD2499950D24AD34944
:103510009950D34AD3499950D34AD4499950D44A5F
:10352000D4499950D44904329950D44AD449995035
:10353000D44AD5499950D54AD5499950D54AD64902
:103540009950D64AD6499950D64AD7499950D74A20
:10355000D7499950D74904329950D74AD7499950F9
:10356000D74AD8495A50D8495850D849D8485850BD
:10357000D849D9485850D949D9485850D949DA4832
:103580005850DA4804315850D9495A50D94ADA4982
:103590009950DA4ADA499950DA4ADB499950DB4ABC
:1035A000DB499950DB4ADC499950DC4ADC499950A7
:1035B000DC4904329950DC4ADC499950DC4ADD4947
:1035C0009950DD4ADD499950DD4ADE499950DE4A7D
:1035D000DE499950DE4ADF499950DF4ADF49995068
:1035E000DF4904329950DF4ADF499950DF4AE04908
:1035F0009950E04AE0499950E04AE1499950E14A3E
:10360000E1499950E14AE2499950E24AE249995028
:10361000E24904329950E24AE2499950E24AE349C8
:103620009950E34AE3499950E34AE4499950E44AFE
:10363000E4499950E44AE5499950E54AE5499950E9
:10364000E54904329950E54AE5499950E54AE64989
:103650009950E64AE6499950E64AE74999522021AD
:10366000E64A9954E64A1A319954E64AE64999508D
:10367000E64AE7499950E74AE7499950E749043251
:103680009950E74AE7499950E74AE8499950E84A8A
:10369000E8499950E84AE9499950E94AE949995075
:1036A000E94AEA499950EA4AEA499950EA49043212
:1036B0009950EA4AEA499950EA4AEB499950EB4A4B
:1036C000EB499950EB4AEC499950EC4AEC49995036
:1036D000EC4AED499950ED4AED499950ED490432D3
:1036E0009950ED4AED499950ED4AEE499950EE4A0C
:1036F000EE499950EE4AEF499950EF4AEF499950F7
:10370000EF4AF0499950F04AF0499950F049043293
:103710009950F04AF0499950F04AF1499950F14ACC
:10372000F1499950F14AF2499950F24AF2499950B7
:10373000F24AF3499950F34AF3499950F349043254
:103740009950F34AF3499950F34AF4499950F44A8D
:10375000F4499950F44AF5499950F54AF549995078
:10376000F54AF6499950F64AF6499950F649043215
:103770009950F64AF6499950F64AF7499950F74A4E
:10378000F7499950F74AF8499950F84AF849995039
:10379000F84AF9499950F94AF949995024210432D3
:1037A0009950F84AF8499950F84AF9499950F94A14
:1037B000F9499950F94AFA499950FA4AFA499950FF
:1037C000FA4AFB499950FB4AFB499950FB4904329C
:1037D0009950FB4AFB499950FB4AFC499952852173
:1037E000FB4A9954FB4A28319954FB4AFB499950AA
:1037F000FB4AFC499950FC4AFC499950FC4AFD4956
:103800009950F9E168100000BC384C706C10000051
:1038100090686818701000003602360374100000BB
:1038200026BC26BD7810000088D0FFFF7A1000006B
:103830007B1000007C100000BB100DA6C13898F56D
:10384000841000000095009888100000F501950193
:103850008C10000060207F909010000020928BB5AB
:1038600094100000007502959810000002B50175D3
:103870009C1000000395036020928BA0A410000010
:1038800010B50285A8100000BCB50385AC1000007F
:10389000BD160236B01000000326BC26B41000008E
:1038A000BD900D18B8100000B5027500BC100000E6
:1038B0009502B50375019503C410000088D0E66039
:1038C00020D38DAAC8100000CC100000D01000003A
:1038D000C6C1A6C1D410000094004CC5D810000089
:1038E0008DA27D20DC100000948BB50148B5004806
:1038F000E4100000E810000068950068EC1000007B
:1039000095016020F01000003B91A5BCF410000070
:10391000852AA5BDF8100000852B60A2FC100000D0
:103920002CD002A22EB500C90411000080B00DB544
:103930000811000001D009A50C1100002C852EA54E
:10394000101100002D852F6014110000A52CA42E4D
:1039500018110000842C852E1C110000A52DA42F09
:10396000842D852F24110000A00060A528110000DF
:103970002885BCA52C1100002985BD203011000030
:10398000DA8BA5C6341100008526A5C738110000C2
:10399000852760B13C110000C685BC204691B1C6A8
:1039A0004411000085BDE6C648110000D002E6C7FC
:1039B0004C110000A522C5C650110000A523E5C783
:1039C00054110000B0E44C52581100008B20629159
:1039D0005C11000085BC984CC08D203A6411000039
:1039E0008FA5BC8568110000B6203A8F6C110000CD
:1039F000A5BD85B770110000A4BCFFFF72110000C7
:103A000073110000741100008FA6B7A57811000093
:103A1000B6186CBC7C1100000020809120378D4CC2
:103A200084110000C58D862D88110000E00060A083
:103A30008C1100000284BCA0901100002984BDA05C
:103A40009411000000B1BCC99811000008D0034CCB
:103A50009C110000499060203B8AA9FFA41100003E
:103A60002C438A30A811000002A9004CAC110000C0
:103A70003B8A243EB0110000912710E1B4110000F0
:103A800059C52A56B811000010112C8BBC1100002A
:103A90004C45D4A080BD30BCC4110000E0131D947F
:103AA000C811000047CF8854CC110000CF30BCE0D3
:103AB000D011000010111680D41100005355C230EF
:103AC000D8110000BCE01416DC1100009050D28325
:103AD000494ED4E5E41100007188BBE1E811000013
:103AE0001D8FA221EC110000586F83ACF011000073
:103AF000225583BAF41100002493E023F81100004A
:103B00001D30BC20FC110000489149C630BC313446
:103B10000412000030BC8454081200004845CE1C3A
:103B20000C1200001D380D9A10120000494E50551D
:103B300014120000D4A010E718120000243F2091B6
:103B40001C12000027E15981AC30BC132412000084
:103B50001182AC4D28120000E01D89522C12000089
:103B60004554555230120000CEE0151D34120000AD
:103B700085454EC438120000E02D984C3C120000E0
:103B80004953D4EC44120000000A801F4812000080
:103B90002493231D4C12000030BCE1505012000051
:103BA00080AC5985541200005255CE38581200008E
:103BB0000A86434C5C1200004541D22B845245CD0D
:103BC000641200001DA080BD6812000038140000BF
:103BD0006A1200006B1200006C12000030D31764F0
:103BE0007012000081AB30D37412000085AB30D36B
:103BF00078120000185A85AD434A44499950444907
:103C000004329950434A44499950444A444999508E
:103C1000444A45499950454A45499950454A46497B
:103C20009950464A46499950464A4749995047490A
:103C300004329950464A47499950474A4749995052
:103C4000474A48499950484A48499950484A494939
:103C50009950494A49499950494A4A4999504A49CB
:103C600004329950494A4A4999504A4A4A49995016
:103C70004A4A4B4999504B4A4B4999504B4A4C49F7
:103C800099504C4A4C4999504C4A4D4999504D498C
:103C9000043299504C4A4D4999504D4A4D499950DA
:103CA0004D4A4E4999504E4A4E4999504E4A4F49B5
:103CB00099504F4A4F4999504F4A5049995050494D
:103CC000043299502F214F4A99504F4A4F495A5028
:103CD0004F495A504F495A504F4A50499950504AAB
:103CE00050499950504A514999505149043299507C
:103CF000504A51499950FF21504A99543CBC904632
:103D00009946A246AB46F0BD7C12000030D3195450
:103D10002F30E28584120000AA30E21A88120000D7
:103D20005A85AF308C120000E21B542F9012000015
:103D300098524EC4941200000A808012981200001B
:103D40000A09291A9C1200000A1A85181309801200
:103D5000A4120000010B3130A812000061720B04A4
:103D6000AC12000002030503B01200001B1A190B6D
:103D7000B412000009060A00B8120000001C172F38
:103D8000BC1200008F5553D280A830BCC412000072
:103D9000312A312AC812000080A92E2FCC1200002F
:103DA000A2122FC1D01200002F80A830D412000020
:103DB000BC80A92FD812000083AC38BCDC120000F4
:103DC0000B2F80A8522F84BDE412000009022F8E11
:103DD000E8120000BC84BD09EC120000932F84BEE1
:103DE000F012000009052F09F4120000912F80BE87
:103DF000F812000084BD0906FC1200002F84BC09E3
:103E0000952F09040413000020202020081300002F
:103E10000C13000010130000141300002020207663
:103E200018130000656374721C1300006F6E203657
:103E300035206261241300007369630D28130000AC
:103E400070B5FCF7E9FA0F2001F07AF8042101229D
:103E5000094800F015F8FF24FCF758FAD021074D67
:103E60000906E4034A6808695204520CAB5CDB03A0
:103E700043402340CB61F5E700105E5FF003002074
:103E8000F0B583B005000E00140000F09DF8002886
:103E900001D003B0F0BD154F01223B000121009776
:103EA000053000F01FFE33002A0000940121104865
:103EB00001F01CF821002800714301F03DFA0400D4
:103EC0000C4B002200930221042000F00BFE230083
:103ED000002201210094052000F004FE3B00022294
:103EE00000210097062000F0FDFDD2E7006CDC0207
:103EF00000800240001BB7000123D022834012063D
:103F000093629361094A830094464022634419688E
:103F1000C0004A40C0211140802252011343196061
:103F2000034B9C46052360444360704704C0014036
:103F300000400140F8B5CE464746914680B5EFF3C4
:103F4000108772B6124E3368002BFCD0BFF35F8F20
:103F5000CB08C55C0724C218280001230C409446F6
:103F6000E0401A000240904603420DD1A340624651
:103F70002B431370BFF35F8F4346336087F3108882
:103F80000CBC90469946F8BD484600F08DFDC046F1
:103F90002C0100D00021044B044ABFF35F8F02C301
:103FA0009342FAD17047C046000100D0800100D092
:103FB000044A1078431CDBB2172B00D9102313706E
:103FC0007047C04680010020024B18688007C00F70
:103FD0007047C04600C0064083680B4810B5844651
:103FE00061446244090112019A18591854684B68D7
:103FF00001209C4201D802D00020C0B210BD12683E
:104000000B689A42F9D8F7E7FFFFFF0FF8B557465C
:1040100045464E46DE46E0B599460CAB19780DABE9
:104020001B78050090469A460768002912D1BE7B8E
:10403000002E45D074003B68A419033C1B195A7824
:104040003100BA73002A00D1FA7300229A705A70B4
:104050001A7003E00E004C006418033C2C4B002245
:104060009C46AB6861449C464346090161440B6031
:104070004B464B600A9B8B600B9BCB603B681B19CC
:104080009A705A701A707B7B9B46002B2CD03200A2
:104090005946B8687B6898473A68002817D05B464D
:1040A00058465B005B441419033BA070D118D35CE5
:1040B000002B00D063705B460E707B73B34514D049
:1040C00030003CBC90469946A246AB46F8BD5B46E4
:1040D0005B005B44033BD3189E701119125D002AEC
:1040E00000D05A705B460B707E7342464B46287D6B
:1040F00000F0CCF9041E06D05346002B03D131004A
:10410000286800F01BFC0E9B002BD9D01C70D7E751
:10411000FFFFFF0FF0B5DE4657464E4645460023EB
:10412000E0B58DB00A93654B8200D45800239B46BE
:104130000B90079400F05AF9079C02000B0060688E
:10414000EFF3108A72B601680029FCD00794BFF320
:104150005F8F2068457B002D64D0A4685849A14634
:1041600069180901894449460E684F68B61A9F418B
:10417000002F5EDD4B460B981A685B6800F086F9ED
:1041800000230026002799469846079C6368BFF3E2
:104190005F8F5A461A608AF310884346002B08D175
:1041A0000028C7D10DB03CBC90469946A246AB460C
:1041B000F0BD0A9B494618022843C0470890099160
:1041C0006268EFF3108A72B61368002BFCD0079474
:1041D000BFF35F8F0899099A002A44DB114303D08B
:1041E000079B1B69002B59D1079B1B68DA7B002AB0
:1041F00006D051008A1819688C466244033A5570FB
:10420000DD73079B013DDA68535D013353555B460F
:10421000079A13615368BFF35F8F5A461A608AF397
:10422000108887E70023002600279946984600203B
:10423000ABE7002F01D1002E9CD1002100F0E0FA65
:104240004B461E685F689B68079A98464B46DB683A
:104250009946D3685B19013B1B780A931B02034301
:104260001361002091E72369002BBDD033003C008F
:104270005B1A94411A002300A74219D90122524225
:10428000D3175946049101210391494601914146B2
:10429000079802950091FFF7B9FEB8E700F0A6F87D
:1042A000089A099B06000F0092197B419942E5D8B4
:1042B0009F42E6D19642E4D9E0E7C046E003002001
:1042C000FFFFFF0F10B5104C6368002B00D010BD2E
:1042D00023000E4A1021206800F0B0F9032000F0FE
:1042E00079F8032000F040F90320094900F088F82C
:1042F000FFF75EFE074B9C46032360442375064B85
:1043000080006060DC60E2E784010020D93F00109B
:104310001541001040000034E0030020F0B5D646FF
:104320004F464646C0B5EFF305833F2213401800C1
:104330001038EFF3108C72B6204D2A68002AFCD09A
:10434000BFF35F8F0122110081401D4C88466163DD
:104350001C4917000E788A463100C1400F400A42BE
:1043600015D019498200646A51588C4219D3174BF1
:10437000D25843469E4353461E70BFF35F8F0023BF
:104380002B608CF31088002A06D0904704E0BFF31E
:104390005F8F2F608CF310881CBC90469946A24614
:1043A000F0BD0B4A9B00904643441A681A60BFF365
:1043B0005F8F00232B608CF31088EDE7280100D07D
:1043C0000040054002840020F08300205C030020B0
:1043D000D03F054010B50100024A0348FFF7AAFD8F
:1043E00010BDC046D05B001000840020034B596A0A
:1043F0000A00986A596A8A42FAD17047004005401B
:1044000070B504000D00EFF3108672B61A4A1368F7
:10441000002BFCD0BFF35F8F002D1BD0200000F0DD
:10442000AFFD164981420AD0200000F0B1FD012104
:10443000200000F093FD0123A340114A1360114BAB
:10444000A400E550BFF35F8F00220B4B1A6086F388
:10445000108870BD0B4BA200D5500122A2400A4922
:1044600020000B7893430B70044900F0BBFD002142
:10447000200000F073FDE5E7280100D01D43001087
:10448000386005405C03002002840020F0B5DE4661
:1044900057464E464546E0B52F4C83B0616A0D0045
:1044A000A66A616AA942FAD194461D008B420AD8D5
:1044B00007D0012003B03CBC90469946A246AB46CB
:1044C000F0BDB242F5D9EFF3108972B6234C2168E2
:1044D0000029FCD0BFF35F8F01248440E6B2B046D0
:1044E0001D491F4E4C63B346367801964646019FE0
:1044F0003E435F463E70061DB6007250194A80006A
:1045000083500B6A002023420CD00A004B6A19002A
:10451000906A536A8B42FAD19D4202D80AD18445EF
:1045200008D90020BFF35F8F00220C4B1A6089F37B
:104530001088BFE7084B019F1C625C6343469F43A2
:104540005B4601201F70BFF35F8F0022034B1A6090
:1045500089F31088AEE7C04600400540280100D02E
:1045600002840020F083002010B5EFF3108472B6AF
:104570000A490B68002BFCD0BFF35F8F01238340F7
:10458000074A0848136202789A430270BFF35F8FAC
:1045900000230B6084F3108810BDC046280100D0B2
:1045A0000040054002840020024B9C466144890083
:1045B000016070474000003410B50400FFF7F8FCBC
:1045C00001002000FFF7F0FFFF232371BFF35F8F8F
:1045D00010BDC04670B505000E001400002924D09F
:1045E000002A24D080686B689847296800280ED07C
:1045F00063001B197200033B9219CB18033A9E709B
:1046000088188A5C002A14D1047030000EE0730010
:104610009B196200033B1219CB18033A9C7088184F
:104620008A5C002A00D05A700670200070BD080015
:10463000FCE75A7004703000F8E7C04630B583607C
:104640000023CCB243730133047342608373C47399
:104650000D000068012C06D9421C0133DBB2137037
:1046600003329C42F9D1FF2129404B005918002305
:1046700040180338437030BDF8B5CE4647460600B3
:104680000C0080B5002907D04D0003686D18033D6C
:104690005A195778002F04D120000CBC9046994637
:1046A000F8BD7900C91903398846434459788946C9
:1046B00000215970517073683A0021008068984752
:1046C0003368002814D042469A18947059195B5DDB
:1046D000002B00D053700F70270049463000FFF7C1
:1046E000CBFF390002003000FFF774FF0400D3E76E
:1046F000424641465D19AF709A185B5C002B00D0B2
:104700006B701470E9E7C046F0B557464546DE4683
:104710004E46E0B50D006B0001685B19DF1E04001A
:10472000C85D83B00192CA1900284CD043001B1801
:10473000033BCB185E78B446002E16D1019E002EA6
:104740003ED0E67B002E04D073009B19CB18033BB0
:104750005D70E57300282FD10023537003B03CBC7B
:1047600090469946A246AB46F0BD72006244033AB9
:1047700089184A78904600224A7091465A70010082
:1047800032002000FFF726FF43468246002B07D069
:104790005B0021684344033BCB185A78002A16D1AA
:1047A000424651462000FFF715FF2168019BCA19B8
:1047B000002BC6D10028CFD043001B18033BCB18D9
:1047C00000219970C8E7019B002BBAD1C4E75000C3
:1047D000801803380918487883464846487058704E
:1047E00041462000FFF7F6FE594680462000FFF7BD
:1047F00043FF414602002000FFF7ECFE8046CFE772
:10480000F0B54E464546DE465746E0B5467B0400C9
:1048100075000068AD19033D83B00191415D4219F7
:1048200000294ED04B005B18033BC3185F78BC4691
:10483000002F18D1019D002D40D0E57B002D04D024
:104840006B005B19C318033B5E70E673002931D11E
:10485000002330005370617303B03CBC904699460E
:10486000A246AB46F0BD7A006244033A8018427813
:1048700093460022427091465A7020003A00FFF79A
:10488000A9FE5B468046002B07D05B0021685B4495
:10489000033BCB185A78002A17D15A4641462000CC
:1048A000FFF798FE019B010020684219002BC4D13C
:1048B0000029CDD04B005B18033BC3180020987033
:1048C000C6E7019B002BB8D1C2E75000801803381F
:1048D0000918487882464846487058705946200062
:1048E000FFF778FE53468346002B07D05B00216814
:1048F0005344033BCB185A78002A06D159465246F6
:104900002000FFF767FE8346C7E750008018033892
:10491000091848464F784870587051462000FFF7F4
:1049200059FE390081462000FFF7A6FE49460200E5
:104930002000FFF74FFE8246E0E7C04670B5040056
:1049400000292CD0437B8B422ED0056848004018AC
:10495000033828188278002A21D053009B18033B83
:10496000EA5CEE188A4202D11BE0002A08D053000C
:104970009B18033BEB185A788A42F6D142785A705A
:1049800000230122837043702000FFF7BDFE617B8E
:1049900002002000FFF71EFE6073012000E00020EF
:1049A00070BD43783370EBE701221900FFF7ACFECE
:1049B00060730120F4E7C0462B4B2C4A70B51A6097
:1049C0002B4A2C4B2C491A6010008B689843FBD162
:1049D0002A4C2B4B9C4209D2013B1D1BAD080135D3
:1049E000AD002D1908CC9847AC42FBD100F0F2F88D
:1049F000244A204B1A60204A9368DB018033FBD1A4
:104A00004022214B214C9A675A671A67DA66204B7D
:104A10009C420BD2013B1D1BED080135ED002D1909
:104A200020000834FFF7C8FDAC42F9D1194C1A4DEB
:104A3000A168C022280000F07DFFA560FFF7AAFA58
:104A400000F008FCFFF73EFC144C154B9C4209D2C9
:104A5000013B1D1BAD080135AD002D1908CC984751
:104A6000A542FBD170BDC04600E00040BFCDFFFFB6
:104A7000FE7F3C0000F0004000C000402802002003
:104A800038020020FFFFFF0100F00140200200205B
:104A90002802002000ED00E0000000203802002085
:104AA0003C02002000BEFDE70FB400B5084883B00B
:104AB00001F016F8049B002B07D005A918000191FE
:104AC00000F0ECFB034801F00BF800BEFDE7C04628
:104AD000F45B0010045C001010B50148FFF7E4FF20
:104AE000085C0010F0B54F464646D646C0B51700E4
:104AF000089A050088469A4265D8190E18020023C4
:104B000000F060FC314B6C009C466419A4006444C6
:104B100063688146984200D960602B1FDBB29A46D9
:104B2000012B2CD9C0238022294EAD009B01715945
:104B3000234312011A60002905D0706900F0FCFBC4
:104B400001300138FDD122687F017A40E0278023BF
:104B5000174052465B0123431F60012A26D9802358
:104B600080229B01234312011A604B46012063609F
:104B7000089B73511CBC90469946A246F0BD434623
:104B8000012BCFD1C02303229B0123431A60023A99
:104B9000A3681A42FCD0E02322687F0157401F40DF
:104BA00080235B0123430A4E1F60AD00424621680B
:104BB000514003220A401A60012243469A40A368EA
:104BC0001A42FCD0CBE70020D4E7C046008000406A
:104BD0006C03002030B50C2083B000F06BF9FFF7B8
:104BE000F3F900280ED09A4B9A4A1A605A609A60DC
:104BF000DA601A615A619A61DA611A62964A5A62F7
:104C000003B030BD954CA06700F05CF90122944BD5
:104C10001A60636C012BFCD10322924B1A608F4AFD
:104C2000936B012BFCD1C0228F4B92011A608F4BEA
:104C30008F491A6010008B689843031EFAD1022432
:104C400001218C4A8C480633009400F04FF905236B
:104C50008A4A01218A48009400F048F9894B5A6831
:104C6000FF2A02D8802252005A608022784C7D4B65
:104C700021691201834D1A60002905D0606900F096
:104C80005BFB01300138FDD1E0217E4B02201A6828
:104C90001140802252012A431160196848400321C3
:104CA0000140116004219A681142FCD080228021C9
:104CB00092012A4309011160802252005A60724B0E
:104CC0002361724B5968FF2900D85A6003226F484C
:104CD000634B01211A60020093681942FCD0E02561
:104CE00013681D4080235B0103431D6012684A4026
:104CF0000321114019600221644A93681942FCD0D3
:104D0000802380219B010343090119608021604BAE
:104D10004900516063615F4B5A68FF2A00D85960AF
:104D200080225D4BE16912015A4D1A60002905D0BD
:104D3000606900F001FB01300138FDD1E0225549E6
:104D40000B681A4080235B012B431A60802380226A
:104D50009B012B4312011A6080223E4B52004A6095
:104D6000E3614E4B5968FF2900D85A6080224C4BB2
:104D7000216A1201494D1A60002905D0606900F0CE
:104D8000DBFA01300138FDD1E02244490B681A40BA
:104D900080235B012B431A60802380229B012B43DD
:104DA00012011A60802380225B004B60294BD202E3
:104DB00023623C4B5968914200D25A6080223A4BA0
:104DC000616A1201374D1A60002905D0606900F050
:104DD000B3FA01300138FDD1E02232490B681A40A4
:104DE00080235B012B431A60802380229B012B438D
:104DF00012011A608023DB024B60174B63622B4B5E
:104E00005A68FF2A02D8802252005A608022284B1A
:104E1000A1691201254D1A60002905D0606900F0D2
:104E20008BFA01300138FDD1E02220490B681A408D
:104E300080235B012B431A60802380229B012B433C
:104E400012011A6080235B004B60114BA361D7E60F
:104E50006C030020006CDC021BB7000000800040E7
:104E60003CB0004030B0004000E0004000F00040A6
:104E700000C00040002F68590080024000389C1C90
:104E800000C0024030800040001BB7003C80004062
:104E9000405973075480004054B000406080004087
:104EA00060B000406C8000406CB000404880004022
:104EB00048B000408023024A9B000343D3627047FE
:104EC00000800540AA23064A1B0113602F230549D1
:104ED000D360054B19605368002BFCDA7047C0465D
:104EE0000040024000B0FA0000600240F8B51E0029
:104EF00001235B42436000230400836001600C20B7
:104F0000170000F019FA4101091A8D01691AC90048
:104F100009188901380000F00FFAC021231D89010A
:104F200019432123A0600B602268002AFCDA069B4B
:104F300036041B031E430823E6600B60F8BDC04621
:104F4000044B00011B685840F0231840024B1860C6
:104F50007047C04600400640005006400123834091
:104F6000002904D0034A1360034A13607047034AC0
:104F70001360FBE780E200E000E100E080E100E098
:104F8000024B10309B688000C058704700ED00E075
:104F900070B50D00EFF3108672B60F4A1368002B40
:104FA000FCD0BFF35F8F0D4B10309B6884001B5902
:104FB0000B4A934203D09D4201D0FFF78DFD074B72
:104FC0009B681D51BFF35F8FBFF35F8F0022024BC1
:104FD0001A6086F3108870BD240100D000ED00E057
:104FE000CD010010F0B5DE4657464E464546E0B5C9
:104FF0000C0083B0EFF3108A72B65B4A1368002B83
:10500000FCD0BFF35F8F1022914681444A46574B34
:1050100096009B689D59564B98469D4205D0A542E7
:1050200016D0544FEB1B2F2B14D9504B9B689D511E
:10503000BFF35F8FBFF35F8F00224B4B1A608AF381
:10504000108803B03CBC90469946A246AB46F0BDE2
:105050001D00EAE7012383409B465A46464B1B68E6
:105060001A4000925A46454B1A60BFF35F8FFBF718
:10507000FAF80190002803D0814501D0FFF72CFDFC
:1050800001232A009A431300DB1B5B414249594329
:10509000090D93689C4208D15BE043001B189B00FC
:1050A000FB189868A04211D01A000620105600285C
:1050B000F3DA009B002B05D05A46314B1A602E4B79
:1050C0001A60B2E75A462D4B1A60AEE70620185612
:1050D000002822DB4200111889007C188846A1684C
:1050E0009960E179D971062161569971A1797F2979
:1050F0001FD8A488F91A6405241544440919E0242A
:105100000905490D24022143998012181D4B920074
:10511000BF181A781870BA71CBE7019800280BD124
:10512000FF30907118489080164A1078117098716D
:10513000BFE7BD210902E7E7144A1549D21A083A28
:105140005002400D01439980124952080A43DA8007
:10515000AFE70620105613000028BBDA019A002A98
:10516000EAD14546E0E7C046240100D000ED00E06A
:10517000CD010010AC01002000E100E080E100E082
:1051800080E200E00184002000BDFFFFE601002076
:1051900000F0FFFF00F8FFFFAAAA0000F8B5012504
:1051A00004000543FBF75FF80200EFF3108672B6C8
:1051B00021490B68002BFCD0BFF35F8F1F492000F3
:1051C000401A4041224B43431B0D1D489200876803
:1051D0005BB2BF58AF421CD006228A569A421CD0FE
:1051E00012228A569A4222D01E228A569A4220D0F1
:1051F0002A228A5603209A4210D0124A117813703C
:10520000A171BFF35F8F00220B4B1A6086F31088E9
:10521000F8BD81680C488850EFE700204200121862
:1052200092008918FF228A71084A8A80E5E70120E6
:10523000F4E70220F2E7C046240100D0AC010020D0
:1052400000ED00E001840020CD01001000BDFFFF53
:10525000AAAA0000F0B500220324FF278026200020
:105260003D00094B11009C461040C0008540A14301
:1052700061440B680132AB43350085402B430B6022
:10528000202AECD1F0BDC04600E400E010B50028B3
:1052900000D110BD00F016FCFBE7C04610B5094A6E
:1052A0000300146884B0002C08D001220091064845
:1052B000524203A9A047012004B010BD00F010FC29
:1052C0000020F9E7DC0300208D5200100148042182
:1052D000014B184700020020FD520010142310B5A6
:1052E0000100188804331B88984710BD162310B599
:1052F0000100188802331B88984710BDF0B5C646D8
:1053000000B5002916D0142304000125984618275B
:10531000890046184346216818883B88984701C48D
:10532000431E984140420540A642F3D1280004BCE8
:105330009046F0BD0125F9E7134A936F9B0813D2FD
:1053400010665166002905D0FFE7FFE7FFE7516FC0
:10535000106F704704B5002801D00020C04300F052
:105360001FFC002104BDC046936F5B08FDD3F0B560
:10537000946ED56E576F166FFFF7E2FF9466D56691
:1053800057671667F0BD0000000000D094464E4AF3
:10539000926F9208624601D230E0C046F0B54A4EA4
:1053A000B56F6D08FCD3346E756E776F366F00F095
:1053B00025F89446444A1466556657671667624650
:1053C000F0BDC0469446404A926F9208624601D2B0
:1053D00058E0C046F0B53C4EB56F6D08FCD3346E56
:1053E000756E776F366F00F04DF89446364A146646
:1053F0005566576716676246F0BDC046002B24DB32
:1054000011D000293EDA00B5C943404200D1013134
:1054100000F038F8C943404200D10131DB43524229
:1054200000D1013300BD002AEBD1002801D10029B1
:1054300005D00020C90FC90701D1C043410800B5FC
:1054400000F0A6FB0022002300BD00B500290ADB06
:10545000DB43524200D1013300F014F8C94340420B
:1054600000D1013100BDC943404200D10131DB43CD
:10547000524200D1013300F005F8DB43524200D123
:10548000013300BD002923D1002B18D1002A0CD0F4
:10549000BC460D4F38667A6600210023FFE7FFE720
:1054A000FFE77A6F386F67467047002801D00748DA
:1054B000010000B500F06CFB0022002300BD0200DB
:1054C0000B00002000217047000000D0FFFFFFFF0D
:1054D000002B00D0BDE0130C26D1002AE7D080B409
:1054E000104F39667A66FFE7FFE730B4040C7B6F34
:1054F000396F1B0423433B66FFE7FFE7FFE7C04626
:1055000084B27B6F3D6F1B0423433B66FFE7FFE7DD
:10551000C04600232C042D0C7A6F386F00196941A6
:10552000B0BC7047000000D0F0B594460025140EC2
:1055300001D112020835140F01D112010435940F64
:1055400001D192000235D40F01D152000135D40BA4
:105550000134254F7C66254C3C660E0C93B2FFE768
:10556000FFE7FFE73C6F6643360C7703BE467343A5
:10557000DF0B5B04C01AB941130C7343DB18C91A63
:10558000CE086643360CB64493B273431F0F1B011B
:10559000C01AB941130C73431F0B1B05C01AB94144
:1055A000860D8F023E436643360C092D24DB520ADA
:1055B0007243801A7703460A6643360C16235B1B38
:1055C000DE40DF40BF1964466643821B70460435E7
:1055D00006330100D940A840C01900D30131A242CE
:1055E00006D20023F0BD0000000000D0FFFFFFFF47
:1055F000121B0130F3D3F1E709277F1BFE406446FD
:10560000A2B27243801A00D20139220C7243130CE9
:105610001204821A99410B007046043513370100B9
:10562000F940A840801900D30131002B02D1A242D9
:105630000AD2F0BD013000D30131121BFAD2013B76
:10564000F8D1A24200D2F0BD013000D30131121BCB
:10565000F7E7F0B51C0C00D080E00CB400251C0A64
:1056600004D11B02160E3343120208351C0B04D161
:105670001B01160F3343120104359C0B04D19B0010
:10568000960F334392000235DC0B02D192185B4136
:1056900001351C00971864410134464F7C66464C26
:1056A0003C660E0CFFE7FFE7FFE7C0463C6F664332
:1056B000360C7703BE4697B27743C01B00D2013940
:1056C000C01B00D201399FB27743C91BC91B170CFD
:1056D00077437E04FF0B801BB941CE086643360C2E
:1056E0000C2D33DBB644120B1F053A431B0B97B24C
:1056F0007743C01B00D201399FB27743C91B170CF7
:1057000077433E043F0C801BB941860D8F023E4318
:10571000664329277F1BFE400C3D7746AF40BF19EB
:1057200030BCA2B2ABB272437343801A9941220CCF
:105730007243130C1204801A994102000B000137C6
:10574000001BA941F9D2781E0021F0BD0C277F1B58
:10575000FE4077467F0BAF40FF19E0E700245D1C59
:1057600007D0144F7D663966FFE7FFE7FFE7FFE7E5
:105770003C6F95B29EB265436643401BB141150C28
:105780001E0C6543664336042F0C3E432D04401B1C
:10579000B141994204D202000B0020000021F0BD6B
:1057A00001D19042F7D3801A994101349942F2D342
:1057B000F6E70000000000D0FFFFFFFF132370B5E5
:1057C0001D78012D10D00BDD2448FFF78FFD244CF0
:1057D00001008022200000F0ADF8022D01D070BD44
:1057E0001F4C204AA264FAE72E001D4C1D4AA30854
:1057F0005B421E401D422FD0330022602020B100AA
:105800006118801B0A604A608A60CA600A614A6146
:105810008A61CA610A624A628A62CA620A634A6328
:105820008A63CA630A644A648A64CA640A654A6508
:105830008A65CA650A664A668A66CA660A674A67E8
:105840004008102803D18A67CA67A264C7E71E33DD
:105850009B00E250A264C2E70023CFE7534400005C
:10586000048400206958001007B5604601880A0AC0
:105870000230DF2AFAD1C9B2820804D302884088F4
:105880000004104300E00068014A5050039007BD37
:1058900004840020132310B512481C78FFF726FD5E
:1058A0000100012C0AD003DD80220F4800F042F8ED
:1058B0000E48FFF713FD0E4B186010BD0A4C542222
:1058C000200000F037F80B4B6365A365E3652366A2
:1058D0006366A366E36623676367A367E367236280
:1058E000E361E5E753460000048500204C330000E7
:1058F00004860020F958001007B5604601880A0A9E
:105900000230DF2AFAD1C9B2820804D30288408863
:105910000004104300E00068014A5050039007BDA6
:105920000485002001480421014B18471002002083
:10593000FD520010014B5B68184700001002002068
:10594000F8B54746CE460D0080B516000700002A80
:1059500020DD4B1E98461A4B002400209946002C4F
:105960002BD043461B5D0D3B5A425341DBB22A5DAF
:105970000A2A13D00134A642F1DC864203DD311A33
:105980003B6828189847AD19013D2B780D3B5A42CA
:1059900053413B740CBC90469946F8BD002BE9D1AD
:1059A000A04203DA211A3B6828189847484602218A
:1059B0003B68013498472000DDE73B7CD7E7C046D1
:1059C000C45C0010F0B557464546DE464E46D0232F
:1059D000E0B51B061C68374B83B007000D001800AC
:1059E00001A990469A4600F0E3F88146002807D1C5
:1059F000019B9C4204D0504600F0E2F801239946F6
:105A00006B1C03D1380000F089F805002A4B1C6894
:105A1000002C2FD00A23294E9B4602E0E468002C7C
:105A200028D02268002AF9D03368002B01D0A34285
:105A3000F4D1637C002B2AD02A0039002000FFF724
:105A40007FFF4346002BE9D06B465A461A71637CB0
:105A5000002B20D0237C002B26D00121236801A815
:105A600098476B461B790D3B5A4253412374E468B7
:105A7000002CD6D14B46002B12D1681E8541E8B2CE
:105A800003B03CBC90469946A246AB46F0BD290007
:105A900038009047D5E70121236801A89847BDE762
:105AA000504600F06DF8E8E7022105482368984762
:105AB000D7E7C04620020020D4030020D8030020EE
:105AC000C45C001010B582B06B4604000022D81DE3
:105AD00001210470FFF776FF200002B010BDC04620
